{
  "contractName": "Compound",
  "abi": [
    {
      "constant": false,
      "inputs": [
        {
          "internalType": "uint256",
          "name": "a",
          "type": "uint256"
        },
        {
          "internalType": "uint256",
          "name": "b",
          "type": "uint256"
        }
      ],
      "name": "sum",
      "outputs": [
        {
          "internalType": "uint256",
          "name": "",
          "type": "uint256"
        }
      ],
      "payable": false,
      "stateMutability": "nonpayable",
      "type": "function"
    }
  ],
  "bytecode": "0x608060405234801561001057600080fd5b506107a0806100206000396000f3fe608060405234801561001057600080fd5b506004361061002b5760003560e01c8063cad0899b14610030575b600080fd5b6100666004803603604081101561004657600080fd5b81019080803590602001909291908035906020019092919050505061007c565b6040518082815260200191505060405180910390f35b60006100bc6040518060400160405280600c81526020017f0a726561636865642073756d000000000000000000000000000000000000000081525061012d565b60003690506100ca816102e4565b6100d330610436565b6101216000368080601f016020809104026020016040519081016040528093929190818152602001838380828437600081840152601f19601f820116905080830192505050505050506105b4565b82840191505092915050565b60006a636f6e736f6c652e6c6f6773ffffffffffffffffffffffffffffffffffffffff16826040516024018080602001828103825283818151815260200191508051906020019080838360005b8381101561019557808201518184015260208101905061017a565b50505050905090810190601f1680156101c25780820380516001836020036101000a031916815260200191505b50925050506040516020818303038152906040527f41304fac000000000000000000000000000000000000000000000000000000007bffffffffffffffffffffffffffffffffffffffffffffffffffffffff19166020820180517bffffffffffffffffffffffffffffffffffffffffffffffffffffffff83818316178352505050506040518082805190602001908083835b602083106102775780518252602082019150602081019050602083039250610254565b6001836020036101000a038019825116818451168082178552505050505050905001915050600060405180830381855afa9150503d80600081146102d7576040519150601f19603f3d011682016040523d82523d6000602084013e6102dc565b606091505b505090505050565b60006a636f6e736f6c652e6c6f6773ffffffffffffffffffffffffffffffffffffffff1682604051602401808281526020019150506040516020818303038152906040527ff5b1bba9000000000000000000000000000000000000000000000000000000007bffffffffffffffffffffffffffffffffffffffffffffffffffffffff19166020820180517bffffffffffffffffffffffffffffffffffffffffffffffffffffffff83818316178352505050506040518082805190602001908083835b602083106103c957805182526020820191506020810190506020830392506103a6565b6001836020036101000a038019825116818451168082178552505050505050905001915050600060405180830381855afa9150503d8060008114610429576040519150601f19603f3d011682016040523d82523d6000602084013e61042e565b606091505b505090505050565b60006a636f6e736f6c652e6c6f6773ffffffffffffffffffffffffffffffffffffffff1682604051602401808273ffffffffffffffffffffffffffffffffffffffff1673ffffffffffffffffffffffffffffffffffffffff1681526020019150506040516020818303038152906040527f2c2ecbc2000000000000000000000000000000000000000000000000000000007bffffffffffffffffffffffffffffffffffffffffffffffffffffffff19166020820180517bffffffffffffffffffffffffffffffffffffffffffffffffffffffff83818316178352505050506040518082805190602001908083835b602083106105475780518252602082019150602081019050602083039250610524565b6001836020036101000a038019825116818451168082178552505050505050905001915050600060405180830381855afa9150503d80600081146105a7576040519150601f19603f3d011682016040523d82523d6000602084013e6105ac565b606091505b505090505050565b60006a636f6e736f6c652e6c6f6773ffffffffffffffffffffffffffffffffffffffff16826040516024018080602001828103825283818151815260200191508051906020019080838360005b8381101561061c578082015181840152602081019050610601565b50505050905090810190601f1680156106495780820380516001836020036101000a031916815260200191505b50925050506040516020818303038152906040527f0be77f56000000000000000000000000000000000000000000000000000000007bffffffffffffffffffffffffffffffffffffffffffffffffffffffff19166020820180517bffffffffffffffffffffffffffffffffffffffffffffffffffffffff83818316178352505050506040518082805190602001908083835b602083106106fe57805182526020820191506020810190506020830392506106db565b6001836020036101000a038019825116818451168082178552505050505050905001915050600060405180830381855afa9150503d806000811461075e576040519150601f19603f3d011682016040523d82523d6000602084013e610763565b606091505b50509050505056fea265627a7a7231582027fc8ff0e1ac536891f248c1ea518b25bd7f43886292a8a1dea64690b8f89aea64736f6c634300050c0032",
  "source": "pragma solidity ^0.5.0;\nimport \"@nomiclabs/buidler/console.sol\";\n\ncontract Compound {\n\n  function sum(uint256 a, uint256 b) public returns (uint256) {\n    console.log(\"\\nreached sum\");\n    uint256 callDataSize;\n    assembly {\n      callDataSize := calldatasize()\n    }\n    console.log(callDataSize);\n    console.log(address(this));\n    console.logBytes(msg.data);\n\n    // bytes memory msgdata;\n    // assembly {\n    //   calldatacopy(msgdata, 0, calldatasize())\n    // }\n    // console.logBytes(msgdata);\n    return a + b;\n  }\n\n  // fallback() payable external {\n  //   console.log(\"\\nCompound_fb\");\n  //   // uint256 callDataSize;\n  //   // bytes memory msgdata;\n  //   // assembly {\n  //   //   callDataSize := calldatasize()\n  //   //   calldatacopy(msgdata, 0, calldatasize())\n  //   // }\n  //   // console.log(callDataSize);\n  //   // console.logBytes(msgdata);\n  //   console.logBytes(msg.data);\n  // }\n\n}",
  "sourcePath": "/Users/dani/dani/Pro/facultate/Master/Term_3_Dissertation/protocol-integrations/contracts/Compound.sol",
  "compiler": {
    "name": "solc",
    "version": "0.5.12+commit.7709ece9.Emscripten.clang"
  },
  "schemaVersion": "3.0.19",
  "updatedAt": "2020-04-30T11:40:34.084Z",
  "devdoc": {
    "methods": {}
  },
  "userdoc": {
    "methods": {}
  }
}