{
  "contractName": "Counter",
  "abi": [
    {
      "anonymous": false,
      "inputs": [
        {
          "indexed": false,
          "internalType": "uint256",
          "name": "number",
          "type": "uint256"
        }
      ],
      "name": "CountedTo",
      "type": "event"
    },
    {
      "constant": false,
      "inputs": [],
      "name": "countUp",
      "outputs": [
        {
          "internalType": "uint256",
          "name": "",
          "type": "uint256"
        }
      ],
      "payable": false,
      "stateMutability": "nonpayable",
      "type": "function"
    },
    {
      "constant": false,
      "inputs": [],
      "name": "countDown",
      "outputs": [
        {
          "internalType": "uint256",
          "name": "",
          "type": "uint256"
        }
      ],
      "payable": false,
      "stateMutability": "nonpayable",
      "type": "function"
    },
    {
      "constant": false,
      "inputs": [
        {
          "internalType": "int256",
          "name": "x",
          "type": "int256"
        },
        {
          "internalType": "int256",
          "name": "y",
          "type": "int256"
        }
      ],
      "name": "args",
      "outputs": [],
      "payable": false,
      "stateMutability": "nonpayable",
      "type": "function"
    },
    {
      "constant": false,
      "inputs": [
        {
          "internalType": "address",
          "name": "implementation",
          "type": "address"
        },
        {
          "internalType": "bytes",
          "name": "params",
          "type": "bytes"
        }
      ],
      "name": "proxy",
      "outputs": [],
      "payable": false,
      "stateMutability": "nonpayable",
      "type": "function"
    },
    {
      "constant": true,
      "inputs": [],
      "name": "getCount",
      "outputs": [
        {
          "internalType": "uint256",
          "name": "",
          "type": "uint256"
        }
      ],
      "payable": false,
      "stateMutability": "view",
      "type": "function"
    }
  ],
  "bytecode": "0x60806040526000805534801561001457600080fd5b50610d4f806100246000396000f3fe608060405234801561001057600080fd5b50600436106100575760003560e01c80630bd8599e1461005c5780631890cf891461007a5780635fcbd5b6146100b2578063a87d942c146100d0578063be6d055a146100ee575b600080fd5b6100646101c9565b6040518082815260200191505060405180910390f35b6100b06004803603604081101561009057600080fd5b8101908080359060200190929190803590602001909291905050506102d6565b005b6100ba610318565b6040518082815260200191505060405180910390f35b6100d8610425565b6040518082815260200191505060405180910390f35b6101c76004803603604081101561010457600080fd5b81019080803573ffffffffffffffffffffffffffffffffffffffff1690602001909291908035906020019064010000000081111561014157600080fd5b82018360208201111561015357600080fd5b8035906020019184600183028401116401000000008311171561017557600080fd5b91908080601f016020809104026020016040519081016040528093929190818152602001838380828437600081840152601f19601f82011690508083019250505050505050919291929050505061042e565b005b6000806001600054019050600054811161024b576040517f08c379a00000000000000000000000000000000000000000000000000000000081526004018080602001828103825260108152602001807f55696e74323536206f766572666c6f770000000000000000000000000000000081525060200191505060405180910390fd5b61028d6040518060400160405280602081526020017f496e6372656173696e6720636f756e7465722066726f6d20256420746f20256481525060005483610513565b806000819055507fa501f5a8ef1a812bff54fb3642cfaec066c351af1716c48a7bdd05e0bb631e676000546040518082815260200191505060405180910390a160005491505090565b6103146040518060400160405280600c81526020017f72656163686564206172677300000000000000000000000000000000000000008152506106dc565b5050565b6000806001600054039050600054811061039a576040517f08c379a00000000000000000000000000000000000000000000000000000000081526004018080602001828103825260118152602001807f55696e7432353620756e646572666c6f7700000000000000000000000000000081525060200191505060405180910390fd5b6103dc6040518060400160405280602081526020017f44656372656173696e6720636f756e7465722066726f6d20256420746f20256481525060005483610513565b806000819055507fa501f5a8ef1a812bff54fb3642cfaec066c351af1716c48a7bdd05e0bb631e676000546040518082815260200191505060405180910390a160005491505090565b60008054905090565b61046c6040518060400160405280600981526020017f0a696e2070726f787900000000000000000000000000000000000000000000008152506106dc565b61047582610893565b61047e81610a11565b6000815190506000806000808460208701885af43d6000803e600051925080600081146104ae57600192506104b3565b600092505b5050816000819055506104fa6040518060400160405280600981526020017f73756363656564656400000000000000000000000000000000000000000000008152506106dc565b61050381610bc8565b61050c82610bc8565b5050505050565b60006a636f6e736f6c652e6c6f6773ffffffffffffffffffffffffffffffffffffffff168484846040516024018080602001848152602001838152602001828103825285818151815260200191508051906020019080838360005b8381101561058957808201518184015260208101905061056e565b50505050905090810190601f1680156105b65780820380516001836020036101000a031916815260200191505b509450505050506040516020818303038152906040527f969cdd03000000000000000000000000000000000000000000000000000000007bffffffffffffffffffffffffffffffffffffffffffffffffffffffff19166020820180517bffffffffffffffffffffffffffffffffffffffffffffffffffffffff83818316178352505050506040518082805190602001908083835b6020831061066d578051825260208201915060208101905060208303925061064a565b6001836020036101000a038019825116818451168082178552505050505050905001915050600060405180830381855afa9150503d80600081146106cd576040519150601f19603f3d011682016040523d82523d6000602084013e6106d2565b606091505b5050905050505050565b60006a636f6e736f6c652e6c6f6773ffffffffffffffffffffffffffffffffffffffff16826040516024018080602001828103825283818151815260200191508051906020019080838360005b83811015610744578082015181840152602081019050610729565b50505050905090810190601f1680156107715780820380516001836020036101000a031916815260200191505b50925050506040516020818303038152906040527f41304fac000000000000000000000000000000000000000000000000000000007bffffffffffffffffffffffffffffffffffffffffffffffffffffffff19166020820180517bffffffffffffffffffffffffffffffffffffffffffffffffffffffff83818316178352505050506040518082805190602001908083835b602083106108265780518252602082019150602081019050602083039250610803565b6001836020036101000a038019825116818451168082178552505050505050905001915050600060405180830381855afa9150503d8060008114610886576040519150601f19603f3d011682016040523d82523d6000602084013e61088b565b606091505b505090505050565b60006a636f6e736f6c652e6c6f6773ffffffffffffffffffffffffffffffffffffffff1682604051602401808273ffffffffffffffffffffffffffffffffffffffff1673ffffffffffffffffffffffffffffffffffffffff1681526020019150506040516020818303038152906040527f2c2ecbc2000000000000000000000000000000000000000000000000000000007bffffffffffffffffffffffffffffffffffffffffffffffffffffffff19166020820180517bffffffffffffffffffffffffffffffffffffffffffffffffffffffff83818316178352505050506040518082805190602001908083835b602083106109a45780518252602082019150602081019050602083039250610981565b6001836020036101000a038019825116818451168082178552505050505050905001915050600060405180830381855afa9150503d8060008114610a04576040519150601f19603f3d011682016040523d82523d6000602084013e610a09565b606091505b505090505050565b60006a636f6e736f6c652e6c6f6773ffffffffffffffffffffffffffffffffffffffff16826040516024018080602001828103825283818151815260200191508051906020019080838360005b83811015610a79578082015181840152602081019050610a5e565b50505050905090810190601f168015610aa65780820380516001836020036101000a031916815260200191505b50925050506040516020818303038152906040527f0be77f56000000000000000000000000000000000000000000000000000000007bffffffffffffffffffffffffffffffffffffffffffffffffffffffff19166020820180517bffffffffffffffffffffffffffffffffffffffffffffffffffffffff83818316178352505050506040518082805190602001908083835b60208310610b5b5780518252602082019150602081019050602083039250610b38565b6001836020036101000a038019825116818451168082178552505050505050905001915050600060405180830381855afa9150503d8060008114610bbb576040519150601f19603f3d011682016040523d82523d6000602084013e610bc0565b606091505b505090505050565b60006a636f6e736f6c652e6c6f6773ffffffffffffffffffffffffffffffffffffffff1682604051602401808281526020019150506040516020818303038152906040527ff5b1bba9000000000000000000000000000000000000000000000000000000007bffffffffffffffffffffffffffffffffffffffffffffffffffffffff19166020820180517bffffffffffffffffffffffffffffffffffffffffffffffffffffffff83818316178352505050506040518082805190602001908083835b60208310610cad5780518252602082019150602081019050602083039250610c8a565b6001836020036101000a038019825116818451168082178552505050505050905001915050600060405180830381855afa9150503d8060008114610d0d576040519150601f19603f3d011682016040523d82523d6000602084013e610d12565b606091505b50509050505056fea265627a7a7231582032731840237d26839b3d40d14d791443f61151f8652d371ba90061fed6674e2964736f6c634300050c0032",
  "source": "pragma solidity ^0.5.0;\nimport \"@nomiclabs/buidler/console.sol\";\nimport \"./Compound.sol\";\ncontract Counter {\n  uint256 count = 0;\n  event CountedTo(uint256 number);\n\n  function countUp() public returns (uint256) {\n    uint256 newCount = count + 1;\n    require(newCount > count, \"Uint256 overflow\");\n    console.log(\"Increasing counter from %d to %d\", count, newCount);\n    count = newCount;\n    emit CountedTo(count);\n    return count;\n  }\n\n  function countDown() public returns (uint256) {\n    uint256 newCount = count - 1;\n    require(newCount < count, \"Uint256 underflow\");\n    console.log(\"Decreasing counter from %d to %d\", count, newCount);\n    \n    count = newCount;\n    emit CountedTo(count);\n    return count;\n  }\n\n  function args(int x, int y) public {\n    console.log(\"reached args\");\n    // console.logBytes(msg.data);\n    // bytes memory d = msg.data;\n    // bytes memory implementation\n    //  = new bytes(32);\n    // bytes memory newCalldata = new bytes(d.length - 32);\n\n    // // bytes memory calledFunctionHash = new bytes(4);\n    // for (uint256 i = 0; i < 4; i++) {\n    //   // calledFunctionHash[i] = d[i];\n    //   newCalldata[i] = d[i];\n    // }\n    // // console.logBytes(calledFunctionHash);\n\n    // bytes memory param = new bytes(32);\n    // for (uint8 i = 4; i < d.length; i += 32) {\n    //   for (uint8 j = 0; j < 32 && (i + j) < d.length; j++) {\n    //     param[j] = d[i + j];\n    //     if(i < 32) {\n    //       implementation\n    //       [j] = d[i + j];\n    //     } else {\n    //       newCalldata[i + j - 32] = d[i + j];\n    //     }\n    //   }\n    //   console.logBytes(param);\n    //   // console.logByte(d[i]);\n    //   console.log(i);\n    // }\n    // console.log(\"implementation:\");\n    // console.logBytes(implementation);\n    // console.log(\"newCalldata:\");\n    // console.logBytes(newCalldata);\n  }\n\n  function proxy(address implementation, bytes memory params) public {\n    console.log(\"\\nin proxy\");\n    console.log(implementation);\n    console.logBytes(params);\n    uint len = params.length;\n    uint256 returnedVal;\n    uint256 succeeded;\n    assembly {\n      let result := delegatecall(gas(), implementation, add(params, 32), len, 0, 0)\n      returndatacopy(0, 0, returndatasize())\n      returnedVal := mload(0)\n      switch result\n      // delegatecall returns 0 on error.\n      case 0 {\n        succeeded := 0\n      }\n      default {\n        succeeded := 1\n      }\n    }\n    count = returnedVal;\n    console.log(\"succeeded\");\n    console.log(succeeded);\n    console.log(returnedVal);\n  }\n\n  function getCount() public view returns (uint256) {\n      return count;\n  }\n}",
  "sourcePath": "/Users/dani/dani/Pro/facultate/Master/Term_3_Dissertation/protocol-integrations/contracts/Counter.sol",
  "compiler": {
    "name": "solc",
    "version": "0.5.12+commit.7709ece9.Emscripten.clang"
  },
  "schemaVersion": "3.0.19",
  "updatedAt": "2020-04-30T11:40:34.085Z",
  "devdoc": {
    "methods": {}
  },
  "userdoc": {
    "methods": {}
  }
}