{
  "contractName": "LTCR",
  "abi": [
    {
      "inputs": [],
      "payable": false,
      "stateMutability": "nonpayable",
      "type": "constructor"
    },
    {
      "anonymous": false,
      "inputs": [
        {
          "indexed": false,
          "internalType": "uint256",
          "name": "round",
          "type": "uint256"
        },
        {
          "indexed": false,
          "internalType": "uint256",
          "name": "start",
          "type": "uint256"
        },
        {
          "indexed": false,
          "internalType": "uint256",
          "name": "end",
          "type": "uint256"
        }
      ],
      "name": "Curate",
      "type": "event"
    },
    {
      "anonymous": false,
      "inputs": [
        {
          "indexed": false,
          "internalType": "uint256",
          "name": "lower",
          "type": "uint256"
        },
        {
          "indexed": false,
          "internalType": "uint256",
          "name": "upper",
          "type": "uint256"
        }
      ],
      "name": "NewBound",
      "type": "event"
    },
    {
      "anonymous": false,
      "inputs": [
        {
          "indexed": true,
          "internalType": "address",
          "name": "previousOwner",
          "type": "address"
        },
        {
          "indexed": true,
          "internalType": "address",
          "name": "newOwner",
          "type": "address"
        }
      ],
      "name": "OwnershipTransferred",
      "type": "event"
    },
    {
      "anonymous": false,
      "inputs": [
        {
          "indexed": false,
          "internalType": "address",
          "name": "agent",
          "type": "address"
        },
        {
          "indexed": false,
          "internalType": "uint256",
          "name": "collateral",
          "type": "uint256"
        }
      ],
      "name": "RegisterAgent",
      "type": "event"
    },
    {
      "anonymous": false,
      "inputs": [
        {
          "indexed": false,
          "internalType": "address",
          "name": "agent",
          "type": "address"
        },
        {
          "indexed": false,
          "internalType": "uint256",
          "name": "reward",
          "type": "uint256"
        },
        {
          "indexed": false,
          "internalType": "uint256",
          "name": "score",
          "type": "uint256"
        }
      ],
      "name": "Update",
      "type": "event"
    },
    {
      "constant": false,
      "inputs": [
        {
          "internalType": "address",
          "name": "sender",
          "type": "address"
        }
      ],
      "name": "initialize",
      "outputs": [],
      "payable": false,
      "stateMutability": "nonpayable",
      "type": "function"
    },
    {
      "constant": true,
      "inputs": [],
      "name": "isOwner",
      "outputs": [
        {
          "internalType": "bool",
          "name": "",
          "type": "bool"
        }
      ],
      "payable": false,
      "stateMutability": "view",
      "type": "function"
    },
    {
      "constant": true,
      "inputs": [],
      "name": "owner",
      "outputs": [
        {
          "internalType": "address",
          "name": "",
          "type": "address"
        }
      ],
      "payable": false,
      "stateMutability": "view",
      "type": "function"
    },
    {
      "constant": false,
      "inputs": [],
      "name": "renounceOwnership",
      "outputs": [],
      "payable": false,
      "stateMutability": "nonpayable",
      "type": "function"
    },
    {
      "constant": false,
      "inputs": [
        {
          "internalType": "address",
          "name": "newOwner",
          "type": "address"
        }
      ],
      "name": "transferOwnership",
      "outputs": [],
      "payable": false,
      "stateMutability": "nonpayable",
      "type": "function"
    },
    {
      "constant": true,
      "inputs": [],
      "name": "getLayers",
      "outputs": [
        {
          "internalType": "uint8[]",
          "name": "",
          "type": "uint8[]"
        }
      ],
      "payable": false,
      "stateMutability": "view",
      "type": "function"
    },
    {
      "constant": false,
      "inputs": [
        {
          "internalType": "uint8[]",
          "name": "layers",
          "type": "uint8[]"
        }
      ],
      "name": "setLayers",
      "outputs": [
        {
          "internalType": "bool",
          "name": "",
          "type": "bool"
        }
      ],
      "payable": false,
      "stateMutability": "nonpayable",
      "type": "function"
    },
    {
      "constant": false,
      "inputs": [
        {
          "internalType": "uint256",
          "name": "mincollateral",
          "type": "uint256"
        }
      ],
      "name": "setCollateral",
      "outputs": [
        {
          "internalType": "bool",
          "name": "",
          "type": "bool"
        }
      ],
      "payable": false,
      "stateMutability": "nonpayable",
      "type": "function"
    },
    {
      "constant": true,
      "inputs": [
        {
          "internalType": "address",
          "name": "agent",
          "type": "address"
        }
      ],
      "name": "getAgentFactor",
      "outputs": [
        {
          "internalType": "uint256",
          "name": "",
          "type": "uint256"
        }
      ],
      "payable": false,
      "stateMutability": "view",
      "type": "function"
    },
    {
      "constant": true,
      "inputs": [
        {
          "internalType": "uint8",
          "name": "layer",
          "type": "uint8"
        }
      ],
      "name": "getFactor",
      "outputs": [
        {
          "internalType": "uint256",
          "name": "",
          "type": "uint256"
        }
      ],
      "payable": false,
      "stateMutability": "view",
      "type": "function"
    },
    {
      "constant": false,
      "inputs": [
        {
          "internalType": "uint8",
          "name": "layer",
          "type": "uint8"
        },
        {
          "internalType": "uint256",
          "name": "factor",
          "type": "uint256"
        }
      ],
      "name": "setFactor",
      "outputs": [
        {
          "internalType": "bool",
          "name": "",
          "type": "bool"
        }
      ],
      "payable": false,
      "stateMutability": "nonpayable",
      "type": "function"
    },
    {
      "constant": true,
      "inputs": [
        {
          "internalType": "uint256",
          "name": "action",
          "type": "uint256"
        }
      ],
      "name": "getReward",
      "outputs": [
        {
          "internalType": "uint256",
          "name": "",
          "type": "uint256"
        }
      ],
      "payable": false,
      "stateMutability": "view",
      "type": "function"
    },
    {
      "constant": false,
      "inputs": [
        {
          "internalType": "uint256",
          "name": "action",
          "type": "uint256"
        },
        {
          "internalType": "uint256",
          "name": "reward",
          "type": "uint256"
        }
      ],
      "name": "setReward",
      "outputs": [
        {
          "internalType": "bool",
          "name": "",
          "type": "bool"
        }
      ],
      "payable": false,
      "stateMutability": "nonpayable",
      "type": "function"
    },
    {
      "constant": true,
      "inputs": [
        {
          "internalType": "uint8",
          "name": "layer",
          "type": "uint8"
        }
      ],
      "name": "getBounds",
      "outputs": [
        {
          "internalType": "uint256",
          "name": "",
          "type": "uint256"
        },
        {
          "internalType": "uint256",
          "name": "",
          "type": "uint256"
        }
      ],
      "payable": false,
      "stateMutability": "view",
      "type": "function"
    },
    {
      "constant": false,
      "inputs": [
        {
          "internalType": "uint8",
          "name": "layer",
          "type": "uint8"
        },
        {
          "internalType": "uint256",
          "name": "lower",
          "type": "uint256"
        },
        {
          "internalType": "uint256",
          "name": "upper",
          "type": "uint256"
        }
      ],
      "name": "setBounds",
      "outputs": [
        {
          "internalType": "bool",
          "name": "",
          "type": "bool"
        }
      ],
      "payable": false,
      "stateMutability": "nonpayable",
      "type": "function"
    },
    {
      "constant": true,
      "inputs": [
        {
          "internalType": "address",
          "name": "agent",
          "type": "address"
        }
      ],
      "name": "getAssignment",
      "outputs": [
        {
          "internalType": "uint8",
          "name": "assignment",
          "type": "uint8"
        }
      ],
      "payable": false,
      "stateMutability": "view",
      "type": "function"
    },
    {
      "constant": true,
      "inputs": [
        {
          "internalType": "address",
          "name": "agent",
          "type": "address"
        }
      ],
      "name": "getAgentCollateral",
      "outputs": [
        {
          "internalType": "uint256",
          "name": "",
          "type": "uint256"
        }
      ],
      "payable": false,
      "stateMutability": "view",
      "type": "function"
    },
    {
      "constant": true,
      "inputs": [
        {
          "internalType": "address",
          "name": "agent",
          "type": "address"
        }
      ],
      "name": "getScore",
      "outputs": [
        {
          "internalType": "uint256",
          "name": "",
          "type": "uint256"
        }
      ],
      "payable": false,
      "stateMutability": "view",
      "type": "function"
    },
    {
      "constant": false,
      "inputs": [
        {
          "internalType": "address",
          "name": "agent",
          "type": "address"
        },
        {
          "internalType": "uint256",
          "name": "collateral",
          "type": "uint256"
        }
      ],
      "name": "registerAgent",
      "outputs": [
        {
          "internalType": "bool",
          "name": "",
          "type": "bool"
        }
      ],
      "payable": false,
      "stateMutability": "nonpayable",
      "type": "function"
    },
    {
      "constant": false,
      "inputs": [
        {
          "internalType": "address",
          "name": "agent",
          "type": "address"
        },
        {
          "internalType": "uint256",
          "name": "action",
          "type": "uint256"
        }
      ],
      "name": "update",
      "outputs": [
        {
          "internalType": "bool",
          "name": "",
          "type": "bool"
        }
      ],
      "payable": false,
      "stateMutability": "nonpayable",
      "type": "function"
    },
    {
      "constant": false,
      "inputs": [],
      "name": "curate",
      "outputs": [
        {
          "internalType": "bool",
          "name": "",
          "type": "bool"
        }
      ],
      "payable": false,
      "stateMutability": "nonpayable",
      "type": "function"
    }
  ],
  "bytecode": "0x608060405234801561001057600080fd5b50600360678190555060006070819055506001607281905550436073819055506072544301607481905550611f698061004a6000396000f3fe608060405234801561001057600080fd5b50600436106101375760003560e01c8063958e9e87116100b8578063bd7d28cd1161007c578063bd7d28cd146105fa578063c329688514610659578063c4d66de8146106b1578063d47875d0146106f5578063e60673eb1461074d578063f2fde38b1461079257610137565b8063958e9e87146103d0578063a2d83b5e14610428578063a47bd4961461048e578063b8daa481146104de578063b9059c9e146105ae57610137565b80634d944b10116100ff5780634d944b10146102aa578063715018a6146102fd5780638da5cb5b146103075780638f32d59b1461035157806395804fe51461037357610137565b80630f9373ad1461013c5780631c4b774b1461015e5780632b40c186146101a05780633543ad58146101fe5780633fabc6b714610264575b600080fd5b6101446107d6565b604051808215151515815260200191505060405180910390f35b61018a6004803603602081101561017457600080fd5b81019080803590602001909291905050506109bb565b6040518082815260200191505060405180910390f35b6101e2600480360360208110156101b657600080fd5b81019080803573ffffffffffffffffffffffffffffffffffffffff1690602001909291905050506109d8565b604051808260ff1660ff16815260200191505060405180910390f35b61024a6004803603604081101561021457600080fd5b81019080803573ffffffffffffffffffffffffffffffffffffffff16906020019092919080359060200190929190505050610c27565b604051808215151515815260200191505060405180910390f35b6102906004803603602081101561027a57600080fd5b8101908080359060200190929190505050610f13565b604051808215151515815260200191505060405180910390f35b6102e3600480360360408110156102c057600080fd5b81019080803560ff16906020019092919080359060200190929190505050610f25565b604051808215151515815260200191505060405180910390f35b610305611026565b005b61030f611161565b604051808273ffffffffffffffffffffffffffffffffffffffff1673ffffffffffffffffffffffffffffffffffffffff16815260200191505060405180910390f35b61035961118b565b604051808215151515815260200191505060405180910390f35b6103b66004803603606081101561038957600080fd5b81019080803560ff16906020019092919080359060200190929190803590602001909291905050506111ea565b604051808215151515815260200191505060405180910390f35b610412600480360360208110156103e657600080fd5b81019080803573ffffffffffffffffffffffffffffffffffffffff169060200190929190505050611272565b6040518082815260200191505060405180910390f35b6104746004803603604081101561043e57600080fd5b81019080803573ffffffffffffffffffffffffffffffffffffffff1690602001909291908035906020019092919050505061131b565b604051808215151515815260200191505060405180910390f35b6104c4600480360360408110156104a457600080fd5b810190808035906020019092919080359060200190929190505050611760565b604051808215151515815260200191505060405180910390f35b610594600480360360208110156104f457600080fd5b810190808035906020019064010000000081111561051157600080fd5b82018360208201111561052357600080fd5b8035906020019184602083028401116401000000008311171561054557600080fd5b919080806020026020016040519081016040528093929190818152602001838360200280828437600081840152601f19601f820116905080830192505050505050509192919290505050611784565b604051808215151515815260200191505060405180910390f35b6105dd600480360360208110156105c457600080fd5b81019080803560ff1690602001909291905050506117a6565b604051808381526020018281526020019250505060405180910390f35b6106026117e6565b6040518080602001828103825283818151815260200191508051906020019060200280838360005b8381101561064557808201518184015260208101905061062a565b505050509050019250505060405180910390f35b61069b6004803603602081101561066f57600080fd5b81019080803573ffffffffffffffffffffffffffffffffffffffff169060200190929190505050611864565b6040518082815260200191505060405180910390f35b6106f3600480360360208110156106c757600080fd5b81019080803573ffffffffffffffffffffffffffffffffffffffff169060200190929190505050611933565b005b6107376004803603602081101561070b57600080fd5b81019080803573ffffffffffffffffffffffffffffffffffffffff169060200190929190505050611af1565b6040518082815260200191505060405180910390f35b61077c6004803603602081101561076357600080fd5b81019080803560ff169060200190929190505050611bd3565b6040518082815260200191505060405180910390f35b6107d4600480360360208110156107a857600080fd5b81019080803573ffffffffffffffffffffffffffffffffffffffff169060200190929190505050611bf6565b005b60006107e061118b565b610852576040517f08c379a00000000000000000000000000000000000000000000000000000000081526004018080602001828103825260208152602001807f4f776e61626c653a2063616c6c6572206973206e6f7420746865206f776e657281525060200191505060405180910390fd5b600060735414156108cb576040517f08c379a00000000000000000000000000000000000000000000000000000000081526004018080602001828103825260128152602001807f706572696f64206e6f742073746172746564000000000000000000000000000081525060200191505060405180910390fd5b607454431015610943576040517f08c379a00000000000000000000000000000000000000000000000000000000081526004018080602001828103825260108152602001807f706572696f64206e6f7420656e6465640000000000000000000000000000000081525060200191505060405180910390fd5b4360738190555060725443016074819055506070600081548092919060010191905055507f338893ceae5e34b22e74f366f643a4f9347093a9bfc28b8bdf049d5a8b2f04a260705460735460745460405180848152602001838152602001828152602001935050505060405180910390a16001905090565b6000606c6000838152602001908152602001600020549050919050565b6000607160008373ffffffffffffffffffffffffffffffffffffffff1673ffffffffffffffffffffffffffffffffffffffff16815260200190815260200160002060009054906101000a900460ff1615610c1d576000606e6000607054815260200190815260200160002060008473ffffffffffffffffffffffffffffffffffffffff1673ffffffffffffffffffffffffffffffffffffffff16815260200190815260200160002060009054906101000a900460ff1660ff161415610bb6576000600190505b6068805490508160ff16108015610ab957506070548160ff16105b15610bac578060ff16606e60008360ff1660705403815260200190815260200160002060008573ffffffffffffffffffffffffffffffffffffffff1673ffffffffffffffffffffffffffffffffffffffff16815260200190815260200160002060009054906101000a900460ff1660ff161115610b9f5780606e60008360ff1660705403815260200190815260200160002060008573ffffffffffffffffffffffffffffffffffffffff1673ffffffffffffffffffffffffffffffffffffffff16815260200190815260200160002060009054906101000a900460ff1603915050610c22565b8080600101915050610a9e565b5060019050610c22565b606e6000607054815260200190815260200160002060008373ffffffffffffffffffffffffffffffffffffffff1673ffffffffffffffffffffffffffffffffffffffff16815260200190815260200160002060009054906101000a900460ff169050610c22565b600090505b919050565b6000606754600a0a606b60006068600081548110610c4157fe5b90600052602060002090602091828204019190069054906101000a900460ff1660ff1660ff1681526020019081526020016000205481610c7d57fe5b0460665402821015610cf7576040517f08c379a00000000000000000000000000000000000000000000000000000000081526004018080602001828103825260158152602001807f746f6f206c6974746c6520636f6c6c61746572616c000000000000000000000081525060200191505060405180910390fd5b6001607160008573ffffffffffffffffffffffffffffffffffffffff1673ffffffffffffffffffffffffffffffffffffffff16815260200190815260200160002060006101000a81548160ff0219169083151502179055506068600081548110610d5d57fe5b90600052602060002090602091828204019190069054906101000a900460ff16606e6000607054815260200190815260200160002060008573ffffffffffffffffffffffffffffffffffffffff1673ffffffffffffffffffffffffffffffffffffffff16815260200190815260200160002060006101000a81548160ff021916908360ff16021790555081606d60008573ffffffffffffffffffffffffffffffffffffffff1673ffffffffffffffffffffffffffffffffffffffff16815260200190815260200160002081905550606c600080815260200190815260200160002054606f6000607054815260200190815260200160002060008573ffffffffffffffffffffffffffffffffffffffff1673ffffffffffffffffffffffffffffffffffffffff168152602001908152602001600020600082825401925050819055507ff98cab6bc44b636119c787ce88f3eb838e1e33fb8d39a6184a9a1caaa6c476f28383604051808373ffffffffffffffffffffffffffffffffffffffff1673ffffffffffffffffffffffffffffffffffffffff1681526020018281526020019250505060405180910390a16001905092915050565b60008160668190555060019050919050565b6000606754600a0a821015610f85576040517f08c379a0000000000000000000000000000000000000000000000000000000008152600401808060200182810382526028815260200180611f0d6028913960400191505060405180910390fd5b60008360ff1611610ffe576040517f08c379a00000000000000000000000000000000000000000000000000000000081526004018080602001828103825260138152602001807f6c6179657220302069732072657365727665640000000000000000000000000081525060200191505060405180910390fd5b81606b60008560ff1660ff168152602001908152602001600020819055506001905092915050565b61102e61118b565b6110a0576040517f08c379a00000000000000000000000000000000000000000000000000000000081526004018080602001828103825260208152602001807f4f776e61626c653a2063616c6c6572206973206e6f7420746865206f776e657281525060200191505060405180910390fd5b600073ffffffffffffffffffffffffffffffffffffffff16603360009054906101000a900473ffffffffffffffffffffffffffffffffffffffff1673ffffffffffffffffffffffffffffffffffffffff167f8be0079c531659141344cd1fd0a4f28419497f9722a3daafe3b4186f6b6457e060405160405180910390a36000603360006101000a81548173ffffffffffffffffffffffffffffffffffffffff021916908373ffffffffffffffffffffffffffffffffffffffff160217905550565b6000603360009054906101000a900473ffffffffffffffffffffffffffffffffffffffff16905090565b6000603360009054906101000a900473ffffffffffffffffffffffffffffffffffffffff1673ffffffffffffffffffffffffffffffffffffffff166111ce611c7c565b73ffffffffffffffffffffffffffffffffffffffff1614905090565b600082606960008660ff1660ff1681526020019081526020016000208190555081606a60008660ff1660ff168152602001908152602001600020819055507fb5d498578bc2899ab9512ab14ed648a427cd40fe44b08d851d35b7dc0645a8d18383604051808381526020018281526020019250505060405180910390a1600190509392505050565b60008061127e836109d8565b905060008160ff16116112f9576040517f08c379a000000000000000000000000000000000000000000000000000000000815260040180806020018281038252601b8152602001807f6167656e74206e6f742061737369676e656420746f206c61796572000000000081525060200191505060405180910390fd5b606b60008260ff1660ff16815260200190815260200160002054915050919050565b6000606c600083815260200190815260200160002054606f6000607054815260200190815260200160002060008573ffffffffffffffffffffffffffffffffffffffff1673ffffffffffffffffffffffffffffffffffffffff16815260200190815260200160002060008282540192505081905550600061139b846109d8565b905060008160ff1611611416576040517f08c379a000000000000000000000000000000000000000000000000000000000815260040180806020018281038252601b8152602001807f6167656e74206e6f742061737369676e656420746f206c61796572000000000081525060200191505060405180910390fd5b606a60008260ff1660ff16815260200190815260200160002054606f6000607054815260200190815260200160002060008673ffffffffffffffffffffffffffffffffffffffff1673ffffffffffffffffffffffffffffffffffffffff168152602001908152602001600020541015801561149957506068805490508160ff1614155b156115145760018101606e6000600160705401815260200190815260200160002060008673ffffffffffffffffffffffffffffffffffffffff1673ffffffffffffffffffffffffffffffffffffffff16815260200190815260200160002060006101000a81548160ff021916908360ff16021790555061167d565b606960008260ff1660ff16815260200190815260200160002054606f6000607054815260200190815260200160002060008673ffffffffffffffffffffffffffffffffffffffff1673ffffffffffffffffffffffffffffffffffffffff1681526020019081526020016000205411158015611592575060018160ff16115b1561160d5760018103606e6000600160705401815260200190815260200160002060008673ffffffffffffffffffffffffffffffffffffffff1673ffffffffffffffffffffffffffffffffffffffff16815260200190815260200160002060006101000a81548160ff021916908360ff16021790555061167c565b80606e6000600160705401815260200190815260200160002060008673ffffffffffffffffffffffffffffffffffffffff1673ffffffffffffffffffffffffffffffffffffffff16815260200190815260200160002060006101000a81548160ff021916908360ff1602179055505b5b7f5429acfa1bb2f4dabe79b6340b7d91d801c2d985aabad7148c2476bbd9421cf884606c600086815260200190815260200160002054606f6000607054815260200190815260200160002060008873ffffffffffffffffffffffffffffffffffffffff1673ffffffffffffffffffffffffffffffffffffffff16815260200190815260200160002054604051808473ffffffffffffffffffffffffffffffffffffffff1673ffffffffffffffffffffffffffffffffffffffff168152602001838152602001828152602001935050505060405180910390a1600191505092915050565b600081606c6000858152602001908152602001600020819055506001905092915050565b6000816068908051906020019061179c929190611de1565b5060019050919050565b600080606960008460ff1660ff16815260200190815260200160002054606a60008560ff1660ff1681526020019081526020016000205491509150915091565b6060606880548060200260200160405190810160405280929190818152602001828054801561185a57602002820191906000526020600020906000905b82829054906101000a900460ff1660ff16815260200190600101906020826000010492830192600103820291508084116118235790505b5050505050905090565b600080611870836109d8565b905060008160ff16116118eb576040517f08c379a000000000000000000000000000000000000000000000000000000000815260040180806020018281038252601b8152602001807f6167656e74206e6f742061737369676e656420746f206c61796572000000000081525060200191505060405180910390fd5b606d60008473ffffffffffffffffffffffffffffffffffffffff1673ffffffffffffffffffffffffffffffffffffffff16815260200190815260200160002054915050919050565b600060019054906101000a900460ff16806119525750611951611c84565b5b8061196957506000809054906101000a900460ff16155b6119be576040517f08c379a000000000000000000000000000000000000000000000000000000000815260040180806020018281038252602e815260200180611edf602e913960400191505060405180910390fd5b60008060019054906101000a900460ff161590508015611a0e576001600060016101000a81548160ff02191690831515021790555060016000806101000a81548160ff0219169083151502179055505b81603360006101000a81548173ffffffffffffffffffffffffffffffffffffffff021916908373ffffffffffffffffffffffffffffffffffffffff160217905550603360009054906101000a900473ffffffffffffffffffffffffffffffffffffffff1673ffffffffffffffffffffffffffffffffffffffff16600073ffffffffffffffffffffffffffffffffffffffff167f8be0079c531659141344cd1fd0a4f28419497f9722a3daafe3b4186f6b6457e060405160405180910390a38015611aed5760008060016101000a81548160ff0219169083151502179055505b5050565b600080611afd836109d8565b905060008160ff1611611b78576040517f08c379a000000000000000000000000000000000000000000000000000000000815260040180806020018281038252601b8152602001807f6167656e74206e6f742061737369676e656420746f206c61796572000000000081525060200191505060405180910390fd5b606f6000607054815260200190815260200160002060008473ffffffffffffffffffffffffffffffffffffffff1673ffffffffffffffffffffffffffffffffffffffff16815260200190815260200160002054915050919050565b6000606b60008360ff1660ff168152602001908152602001600020549050919050565b611bfe61118b565b611c70576040517f08c379a00000000000000000000000000000000000000000000000000000000081526004018080602001828103825260208152602001807f4f776e61626c653a2063616c6c6572206973206e6f7420746865206f776e657281525060200191505060405180910390fd5b611c7981611c9b565b50565b600033905090565b6000803090506000813b9050600081149250505090565b600073ffffffffffffffffffffffffffffffffffffffff168173ffffffffffffffffffffffffffffffffffffffff161415611d21576040517f08c379a0000000000000000000000000000000000000000000000000000000008152600401808060200182810382526026815260200180611eb96026913960400191505060405180910390fd5b8073ffffffffffffffffffffffffffffffffffffffff16603360009054906101000a900473ffffffffffffffffffffffffffffffffffffffff1673ffffffffffffffffffffffffffffffffffffffff167f8be0079c531659141344cd1fd0a4f28419497f9722a3daafe3b4186f6b6457e060405160405180910390a380603360006101000a81548173ffffffffffffffffffffffffffffffffffffffff021916908373ffffffffffffffffffffffffffffffffffffffff16021790555050565b82805482825590600052602060002090601f01602090048101928215611e775791602002820160005b83821115611e4857835183826101000a81548160ff021916908360ff1602179055509260200192600101602081600001049283019260010302611e0a565b8015611e755782816101000a81549060ff0219169055600101602081600001049283019260010302611e48565b505b509050611e849190611e88565b5090565b611eb591905b80821115611eb157600081816101000a81549060ff021916905550600101611e8e565b5090565b9056fe4f776e61626c653a206e6577206f776e657220697320746865207a65726f2061646472657373436f6e747261637420696e7374616e63652068617320616c7265616479206265656e20696e697469616c697a6564666163746f72206e6565647320746f2062652061626f7665206f7220657175616c20746f20312e30a265627a7a72315820109cf5c92cb155b6bec85cb94312263b54f24f622a708e955e43c157719e00c064736f6c634300050c0032",
  "source": "pragma solidity ^0.5.0;\n\nimport \"@openzeppelin/contracts-ethereum-package/contracts/ownership/Ownable.sol\";\n\ncontract LTCR is Ownable {\n    uint256 _minCollateral; // minimum collateral\n    uint256 _decimals; // decimals to calculate collateral factor\n\n    // Implementation of L = (lower, upper, factor)\n    uint8[] _layers; // array of layers, e.g. {1,2,3,4}\n    mapping (uint8 => uint256) _lower; // lower bound of layer\n    mapping (uint8 => uint256) _upper; // upper bound of layer\n    mapping (uint8 => uint256) _factors; // factor of layer\n\n    // Implementation of the relevant agreement parameters A = (phi, payment, score, deposits)\n    mapping (uint256 => uint256) _rewards; // reward (score) for performing an action\n    mapping (address => uint256) _deposits; // amount of deposit\n\n    // Implementation of the registry\n    mapping (uint256 => mapping (address => uint8)) _assignments; // layer assignment by round and agent\n    mapping (uint256 => mapping (address => uint256)) _scores; // score by round and agent\n    uint256 _round; // current round in the protocol\n    \n    mapping (address => bool) _agents; // track all agents\n\n    uint256 _blockperiod; // block period until curation\n    uint256 _start; // start of period\n    uint256 _end; // end of period\n\n    constructor() public {\n        _decimals = 3; // e.g. a factor of 1500 is equal to 1.5 times the collateral\n        _round = 0; // init rounds\n    \n        _blockperiod = 1; // wait for 10 blocks to curate\n        _start = block.number;\n        _end = block.number + _blockperiod;\n    }\n    \n    // ##############\n    // ### LAYERS ###\n    // ##############\n\n    function getLayers() public view returns(uint8[] memory) {\n        return _layers;\n    }\n\n    function setLayers(uint8[] memory layers) public returns (bool) {\n         // set layers\n        _layers = layers;\n        return true;\n    }\n\n    // ##################\n    // ### Collateral ###\n    // ##################\n\n    // function setCollateral(uint256 mincollateral) public onlyOwner returns (bool) {\n    function setCollateral(uint256 mincollateral) public returns (bool) {\n        _minCollateral = mincollateral;\n        return true;\n    }\n\n    // ##############\n    // ### FACTOR ###\n    // ##############\n    function getAgentFactor(address agent) public view returns (uint256) {      \n        uint8 assignment = getAssignment(agent);\n\n        require(assignment > 0, \"agent not assigned to layer\");\n\n        return _factors[assignment];\n    }\n\n    function getFactor(uint8 layer) public view returns (uint256) {\n        return _factors[layer];\n    }\n\n    // function setFactor(uint8 layer, uint256 factor) public onlyOwner returns (bool) {\n    function setFactor(uint8 layer, uint256 factor) public returns (bool) {\n        require(factor >= (10 ** _decimals), \"factor needs to be above or equal to 1.0\");\n        require(layer > 0, \"layer 0 is reserved\");\n        _factors[layer] = factor;\n        return true;\n    }\n\n    // ###############\n    // ### REWARD ###\n    // ###############\n\n    function getReward(uint256 action) public view returns (uint256) {\n        return _rewards[action];\n    }\n\n    // function setReward(uint256 action, uint256 reward) public onlyOwner returns (bool) {\n    function setReward(uint256 action, uint256 reward) public returns (bool) {\n        _rewards[action] = reward;\n        return true;\n    }\n\n    // ###############\n    // ### BOUNDS ###\n    // ###############\n\n    function getBounds(uint8 layer) public view returns (uint256, uint256) {\n        return (_lower[layer], _upper[layer]);\n    }\n\n    // function setBounds(uint8 layer, uint256 lower, uint256 upper) public onlyOwner returns (bool) {\n    function setBounds(uint8 layer, uint256 lower, uint256 upper) public returns (bool) {\n        _lower[layer] = lower;\n        _upper[layer] = upper;\n\n        emit NewBound(lower, upper);\n\n        return true;\n    }\n\n    event NewBound(uint256 lower, uint256 upper);\n\n    // ######################\n    // ### AGENT REGISTRY ###\n    // ######################\n\n    function getAssignment(address agent) public view returns(uint8 assignment) {\n        // check if agent is registered\n        if (_agents[agent]) {\n            // check if agent is assigned to a layer in the current round\n            if (_assignments[_round][agent] == 0) {\n                // check if the agent was assigned to a layer in previous rounds\n                for (uint8 i = 1; i < _layers.length && i < _round; i++) {\n                    if (_assignments[_round - i][agent] > i) {\n                        return _assignments[_round - i][agent] - i;\n                    }\n                }\n                return 1;\n            } else {\n                return _assignments[_round][agent];\n            }\n        } else {\n            return 0;\n        }\n    }\n\n    function getAgentCollateral(address agent) public view returns (uint256) {\n        uint8 assignment = getAssignment(agent);\n\n        require(assignment > 0, \"agent not assigned to layer\");\n\n        return _deposits[agent];\n    }\n\n    function getScore(address agent) public view returns (uint256) {\n        uint8 assignment = getAssignment(agent);\n\n        require(assignment > 0, \"agent not assigned to layer\");\n\n        return _scores[_round][agent];\n    }\n\n    function registerAgent(address agent, uint256 collateral) public returns (bool) {\n        require(collateral >= _minCollateral * (_factors[_layers[0]] / (10 ** _decimals)), \"too little collateral\");\n        \n        // register agent\n        _agents[agent] = true;\n        // asign agent to lowest layer\n        _assignments[_round][agent] = _layers[0];\n        // track the deposit\n        _deposits[agent] = collateral;\n        // update the score of the agent\n        _scores[_round][agent] += _rewards[0];\n    \n        emit RegisterAgent(agent, collateral);\n    \n        return true;\n    }\n\n    event RegisterAgent(address agent, uint256 collateral);\n\n    // ####################\n    // ### TCR CONTROLS ###\n    // ####################\n\n    function update(address agent, uint256 action) public returns (bool) {\n        _scores[_round][agent] += _rewards[action];\n\n        // asignment in the current round\n        uint8 assignment = getAssignment(agent);\n\n        require(assignment > 0, \"agent not assigned to layer\");\n\n        // promote the agent to the next layer\n        if (_scores[_round][agent] >= _upper[assignment] && assignment != _layers.length) {\n            // asignment in the next round\n            _assignments[_round + 1][agent] = assignment + 1;\n        // demote the agent to the previous layer\n        } else if (_scores[_round][agent] <= _lower[assignment] && assignment > 1) {\n            // asignment in the next round\n            _assignments[_round + 1][agent] = assignment - 1;\n        // agent layer remans the same\n        } else {\n            _assignments[_round + 1][agent] = assignment;\n        }\n        \n        emit Update(agent, _rewards[action], _scores[_round][agent]);\n\n        return true;\n    }\n\n    event Update(address agent, uint256 reward, uint256 score);\n\n    function curate() public onlyOwner returns (bool) {\n        require(_start != 0, \"period not started\");\n        require(block.number >= _end, \"period not ended\");\n\n        // update start and end times for next round\n        _start = block.number;\n        _end = block.number + _blockperiod;\n\n        // switch to the next round\n        _round++;\n\n        emit Curate(_round, _start, _end);\n        return true;\n    }\n\n    event Curate(uint256 round, uint256 start, uint256 end);\n}",
  "sourcePath": "/Users/dani/dani/Pro/facultate/Master/Term_3_Dissertation/protocol-integrations/contracts/LTCR.sol",
  "compiler": {
    "name": "solc",
    "version": "0.5.12+commit.7709ece9.Emscripten.clang"
  },
  "schemaVersion": "3.0.19",
  "updatedAt": "2020-04-30T13:16:39.159Z",
  "networkType": "ethereum",
  "devdoc": {
    "methods": {
      "initialize(address)": {
        "details": "Initializes the contract setting the deployer as the initial owner."
      },
      "isOwner()": {
        "details": "Returns true if the caller is the current owner."
      },
      "owner()": {
        "details": "Returns the address of the current owner."
      },
      "renounceOwnership()": {
        "details": "Leaves the contract without owner. It will not be possible to call `onlyOwner` functions anymore. Can only be called by the current owner.     * > Note: Renouncing ownership will leave the contract without an owner, thereby removing any functionality that is only available to the owner."
      },
      "transferOwnership(address)": {
        "details": "Transfers ownership of the contract to a new account (`newOwner`). Can only be called by the current owner."
      }
    }
  },
  "userdoc": {
    "methods": {}
  }
}