{
  "contractName": "trusty",
  "abi": [
    {
      "payable": true,
      "stateMutability": "payable",
      "type": "fallback"
    },
    {
      "constant": false,
      "inputs": [
        {
          "internalType": "string",
          "name": "protocol",
          "type": "string"
        },
        {
          "internalType": "address[]",
          "name": "contracts",
          "type": "address[]"
        },
        {
          "internalType": "uint8[]",
          "name": "layers",
          "type": "uint8[]"
        },
        {
          "internalType": "uint256[]",
          "name": "layerFactors",
          "type": "uint256[]"
        },
        {
          "internalType": "uint256[]",
          "name": "layerLowerBounds",
          "type": "uint256[]"
        },
        {
          "internalType": "uint256[]",
          "name": "layerUpperBounds",
          "type": "uint256[]"
        },
        {
          "internalType": "uint256",
          "name": "minCollateral",
          "type": "uint256"
        },
        {
          "internalType": "uint256[]",
          "name": "actions",
          "type": "uint256[]"
        },
        {
          "internalType": "uint256[]",
          "name": "actionRewards",
          "type": "uint256[]"
        }
      ],
      "name": "addProtocol",
      "outputs": [
        {
          "internalType": "bool",
          "name": "",
          "type": "bool"
        }
      ],
      "payable": false,
      "stateMutability": "nonpayable",
      "type": "function"
    },
    {
      "constant": false,
      "inputs": [
        {
          "internalType": "string",
          "name": "protocol",
          "type": "string"
        },
        {
          "internalType": "address[]",
          "name": "contracts",
          "type": "address[]"
        }
      ],
      "name": "setContracts",
      "outputs": [
        {
          "internalType": "bool",
          "name": "",
          "type": "bool"
        }
      ],
      "payable": false,
      "stateMutability": "nonpayable",
      "type": "function"
    },
    {
      "constant": false,
      "inputs": [
        {
          "internalType": "address",
          "name": "implementation",
          "type": "address"
        },
        {
          "internalType": "bytes",
          "name": "params",
          "type": "bytes"
        }
      ],
      "name": "proxy",
      "outputs": [],
      "payable": false,
      "stateMutability": "nonpayable",
      "type": "function"
    }
  ],
  "bytecode": "0x608060405234801561001057600080fd5b50613d6d806100206000396000f3fe6080604052600436106100345760003560e01c806341fdd7311461007457806385fca3a61461056b578063be6d055a146106df575b6100726040518060400160405280601481526020017f72656163686564207468652066616c6c6261636b0000000000000000000000008152506107c7565b005b34801561008057600080fd5b50610551600480360361012081101561009857600080fd5b81019080803590602001906401000000008111156100b557600080fd5b8201836020820111156100c757600080fd5b803590602001918460018302840111640100000000831117156100e957600080fd5b91908080601f016020809104026020016040519081016040528093929190818152602001838380828437600081840152601f19601f8201169050808301925050505050505091929192908035906020019064010000000081111561014c57600080fd5b82018360208201111561015e57600080fd5b8035906020019184602083028401116401000000008311171561018057600080fd5b919080806020026020016040519081016040528093929190818152602001838360200280828437600081840152601f19601f820116905080830192505050505050509192919290803590602001906401000000008111156101e057600080fd5b8201836020820111156101f257600080fd5b8035906020019184602083028401116401000000008311171561021457600080fd5b919080806020026020016040519081016040528093929190818152602001838360200280828437600081840152601f19601f8201169050808301925050505050505091929192908035906020019064010000000081111561027457600080fd5b82018360208201111561028657600080fd5b803590602001918460208302840111640100000000831117156102a857600080fd5b919080806020026020016040519081016040528093929190818152602001838360200280828437600081840152601f19601f8201169050808301925050505050505091929192908035906020019064010000000081111561030857600080fd5b82018360208201111561031a57600080fd5b8035906020019184602083028401116401000000008311171561033c57600080fd5b919080806020026020016040519081016040528093929190818152602001838360200280828437600081840152601f19601f8201169050808301925050505050505091929192908035906020019064010000000081111561039c57600080fd5b8201836020820111156103ae57600080fd5b803590602001918460208302840111640100000000831117156103d057600080fd5b919080806020026020016040519081016040528093929190818152602001838360200280828437600081840152601f19601f820116905080830192505050505050509192919290803590602001909291908035906020019064010000000081111561043a57600080fd5b82018360208201111561044c57600080fd5b8035906020019184602083028401116401000000008311171561046e57600080fd5b919080806020026020016040519081016040528093929190818152602001838360200280828437600081840152601f19601f820116905080830192505050505050509192919290803590602001906401000000008111156104ce57600080fd5b8201836020820111156104e057600080fd5b8035906020019184602083028401116401000000008311171561050257600080fd5b919080806020026020016040519081016040528093929190818152602001838360200280828437600081840152601f19601f82011690508083019250505050505050919291929050505061097e565b604051808215151515815260200191505060405180910390f35b34801561057757600080fd5b506106c56004803603604081101561058e57600080fd5b81019080803590602001906401000000008111156105ab57600080fd5b8201836020820111156105bd57600080fd5b803590602001918460018302840111640100000000831117156105df57600080fd5b91908080601f016020809104026020016040519081016040528093929190818152602001838380828437600081840152601f19601f8201169050808301925050505050505091929192908035906020019064010000000081111561064257600080fd5b82018360208201111561065457600080fd5b8035906020019184602083028401116401000000008311171561067657600080fd5b919080806020026020016040519081016040528093929190818152602001838360200280828437600081840152601f19601f820116905080830192505050505050509192919290505050610dd5565b604051808215151515815260200191505060405180910390f35b3480156106eb57600080fd5b506107c56004803603604081101561070257600080fd5b81019080803573ffffffffffffffffffffffffffffffffffffffff1690602001909291908035906020019064010000000081111561073f57600080fd5b82018360208201111561075157600080fd5b8035906020019184600183028401116401000000008311171561077357600080fd5b91908080601f016020809104026020016040519081016040528093929190818152602001838380828437600081840152601f19601f820116905080830192505050505050509192919290505050610efb565b005b60006a636f6e736f6c652e6c6f6773ffffffffffffffffffffffffffffffffffffffff16826040516024018080602001828103825283818151815260200191508051906020019080838360005b8381101561082f578082015181840152602081019050610814565b50505050905090810190601f16801561085c5780820380516001836020036101000a031916815260200191505b50925050506040516020818303038152906040527f41304fac000000000000000000000000000000000000000000000000000000007bffffffffffffffffffffffffffffffffffffffffffffffffffffffff19166020820180517bffffffffffffffffffffffffffffffffffffffffffffffffffffffff83818316178352505050506040518082805190602001908083835b6020831061091157805182526020820191506020810190506020830392506108ee565b6001836020036101000a038019825116818451168082178552505050505050905001915050600060405180830381855afa9150503d8060008114610971576040519150601f19603f3d011682016040523d82523d6000602084013e610976565b606091505b505090505050565b60006109a1604051806080016040528060488152602001613cf1604891396107c7565b6109aa8a611189565b15610a1d576040517f08c379a00000000000000000000000000000000000000000000000000000000081526004018080602001828103825260168152602001807f70726f746f636f6c20616c72656164792061646465640000000000000000000081525060200191505060405180910390fd5b60008a9080600181540180825580915050906001820390600052602060002001600090919290919091509080519060200190610a5a929190611aba565b50508860028b6040518082805190602001908083835b60208310610a935780518252602082019150602081019050602083039250610a70565b6001836020036101000a03801982511681845116808217855250505050505090500191505090815260200160405180910390209080519060200190610ad9929190611b3a565b5060008090505b89518160ff161015610b6957838160ff1681518110610afb57fe5b6020026020010151600360008c8460ff1681518110610b1657fe5b602002602001015173ffffffffffffffffffffffffffffffffffffffff1673ffffffffffffffffffffffffffffffffffffffff168152602001908152602001600020819055508080600101915050610ae0565b506000604051610b7890611bc4565b604051809103906000f080158015610b94573d6000803e3d6000fd5b5090508060018c6040518082805190602001908083835b60208310610bce5780518252602082019150602081019050602083039250610bab565b6001836020036101000a038019825116818451168082178552505050505050905001915050908152602001604051809103902060006101000a81548173ffffffffffffffffffffffffffffffffffffffff021916908373ffffffffffffffffffffffffffffffffffffffff1602179055508073ffffffffffffffffffffffffffffffffffffffff1663b8daa4818a6040518263ffffffff1660e01b81526004018080602001828103825283818151815260200191508051906020019060200280838360005b83811015610cae578082015181840152602081019050610c93565b5050505090500192505050602060405180830381600087803b158015610cd357600080fd5b505af1158015610ce7573d6000803e3d6000fd5b505050506040513d6020811015610cfd57600080fd5b8101908080519060200190929190505050508073ffffffffffffffffffffffffffffffffffffffff16633fabc6b7866040518263ffffffff1660e01b815260040180828152602001915050602060405180830381600087803b158015610d6257600080fd5b505af1158015610d76573d6000803e3d6000fd5b505050506040513d6020811015610d8c57600080fd5b810190808051906020019092919050505050610da9898983611284565b50610db58484836113d4565b50610dc28988888461151e565b5060019150509998505050505050505050565b6000610e156040518060400160405280601581526020017f636f6e736f6c65206c6f6720776f726b696e67203200000000000000000000008152506107c7565b610e1e83611189565b610e73576040517f08c379a0000000000000000000000000000000000000000000000000000000008152600401808060200182810382526023815260200180613cce6023913960400191505060405180910390fd5b816002846040518082805190602001908083835b60208310610eaa5780518252602082019150602081019050602083039250610e87565b6001836020036101000a03801982511681845116808217855250505050505090500191505090815260200160405180910390209080519060200190610ef0929190611b3a565b506001905092915050565b60003390506060610f0b8461169a565b9050610f4b6040518060400160405280601681526020017f636f6e736f6c65206c6f6720776f726b696e67203120000000000000000000008152506107c7565b610f648160405180602001604052806000815250611913565b15610fba576040517f08c379a0000000000000000000000000000000000000000000000000000000008152600401808060200182810382526023815260200180613c396023913960400191505060405180910390fd5b60006001826040518082805190602001908083835b60208310610ff25780518252602082019150602081019050602083039250610fcf565b6001836020036101000a038019825116818451168082178552505050505050905001915050908152602001604051809103902060009054906101000a900473ffffffffffffffffffffffffffffffffffffffff16905060006082905061105984828461192e565b6000600360008873ffffffffffffffffffffffffffffffffffffffff1673ffffffffffffffffffffffffffffffffffffffff16815260200190815260200160002054905060008651905060008060008360208b018c5af43d6000803e6000519150508473ffffffffffffffffffffffffffffffffffffffff1663a2d83b5e88856040518363ffffffff1660e01b8152600401808373ffffffffffffffffffffffffffffffffffffffff1673ffffffffffffffffffffffffffffffffffffffff16815260200182815260200192505050602060405180830381600087803b15801561114257600080fd5b505af1158015611156573d6000803e3d6000fd5b505050506040513d602081101561116c57600080fd5b810190808051906020019092919050505050505050505050505050565b600080600090505b6000805490508160ff1610156112795761125d60008260ff16815481106111b457fe5b906000526020600020018054600181600116156101000203166002900480601f0160208091040260200160405190810160405280929190818152602001828054600181600116156101000203166002900480156112525780601f1061122757610100808354040283529160200191611252565b820191906000526020600020905b81548152906001019060200180831161123557829003601f168201915b505050505084611913565b1561126c57600191505061127f565b8080600101915050611191565b50600090505b919050565b600082518451146112e0576040517f08c379a0000000000000000000000000000000000000000000000000000000008152600401808060200182810382526038815260200180613c966038913960400191505060405180910390fd5b60008090505b84518160ff1610156113c8578273ffffffffffffffffffffffffffffffffffffffff16634d944b10868360ff168151811061131d57fe5b6020026020010151868460ff168151811061133457fe5b60200260200101516040518363ffffffff1660e01b8152600401808360ff1660ff16815260200182815260200192505050602060405180830381600087803b15801561137f57600080fd5b505af1158015611393573d6000803e3d6000fd5b505050506040513d60208110156113a957600080fd5b81019080805190602001909291905050505080806001019150506112e6565b50600190509392505050565b60008251845114611430576040517f08c379a000000000000000000000000000000000000000000000000000000000815260040180806020018281038252603a815260200180613c5c603a913960400191505060405180910390fd5b60008090505b84518160ff161015611512578273ffffffffffffffffffffffffffffffffffffffff1663a47bd496868360ff168151811061146d57fe5b6020026020010151868460ff168151811061148457fe5b60200260200101516040518363ffffffff1660e01b81526004018083815260200182815260200192505050602060405180830381600087803b1580156114c957600080fd5b505af11580156114dd573d6000803e3d6000fd5b505050506040513d60208110156114f357600080fd5b8101908080519060200190929190505050508080600101915050611436565b50600190509392505050565b600083518551148015611532575082518551145b611587576040517f08c379a000000000000000000000000000000000000000000000000000000000815260040180806020018281038252604c815260200180613bed604c913960600191505060405180910390fd5b60008090505b85518160ff16101561168d578273ffffffffffffffffffffffffffffffffffffffff166395804fe5878360ff16815181106115c457fe5b6020026020010151878460ff16815181106115db57fe5b6020026020010151878560ff16815181106115f257fe5b60200260200101516040518463ffffffff1660e01b8152600401808460ff1660ff1681526020018381526020018281526020019350505050602060405180830381600087803b15801561164457600080fd5b505af1158015611658573d6000803e3d6000fd5b505050506040513d602081101561166e57600080fd5b810190808051906020019092919050505050808060010191505061158d565b5060019050949350505050565b606060008090505b6000805490508160ff1610156118fa576060600260008360ff16815481106116c657fe5b90600052602060002001604051808280546001816001161561010002031660029004801561172b5780601f1061170957610100808354040283529182019161172b565b820191906000526020600020905b815481529060010190602001808311611717575b505091505090815260200160405180910390208054806020026020016040519081016040528092919081815260200182805480156117be57602002820191906000526020600020905b8160009054906101000a900473ffffffffffffffffffffffffffffffffffffffff1673ffffffffffffffffffffffffffffffffffffffff1681526020019060010190808311611774575b5050505050905060008090505b81518160ff1610156118eb578473ffffffffffffffffffffffffffffffffffffffff16828260ff16815181106117fd57fe5b602002602001015173ffffffffffffffffffffffffffffffffffffffff1614156118de5760008360ff168154811061183157fe5b906000526020600020018054600181600116156101000203166002900480601f0160208091040260200160405190810160405280929190818152602001828054600181600116156101000203166002900480156118cf5780601f106118a4576101008083540402835291602001916118cf565b820191906000526020600020905b8154815290600101906020018083116118b257829003601f168201915b5050505050935050505061190e565b80806001019150506117cb565b505080806001019150506116a2565b506040518060200160405280600081525090505b919050565b60008180519060200120838051906020012014905092915050565b60008173ffffffffffffffffffffffffffffffffffffffff16632b40c186856040518263ffffffff1660e01b8152600401808273ffffffffffffffffffffffffffffffffffffffff1673ffffffffffffffffffffffffffffffffffffffff16815260200191505060206040518083038186803b1580156119ad57600080fd5b505afa1580156119c1573d6000803e3d6000fd5b505050506040513d60208110156119d757600080fd5b810190808051906020019092919050505060ff161415611ab5578073ffffffffffffffffffffffffffffffffffffffff16633543ad5884846040518363ffffffff1660e01b8152600401808373ffffffffffffffffffffffffffffffffffffffff1673ffffffffffffffffffffffffffffffffffffffff16815260200182815260200192505050602060405180830381600087803b158015611a7857600080fd5b505af1158015611a8c573d6000803e3d6000fd5b505050506040513d6020811015611aa257600080fd5b8101908080519060200190929190505050505b505050565b828054600181600116156101000203166002900490600052602060002090601f016020900481019282601f10611afb57805160ff1916838001178555611b29565b82800160010185558215611b29579182015b82811115611b28578251825591602001919060010190611b0d565b5b509050611b369190611bd1565b5090565b828054828255906000526020600020908101928215611bb3579160200282015b82811115611bb25782518260006101000a81548173ffffffffffffffffffffffffffffffffffffffff021916908373ffffffffffffffffffffffffffffffffffffffff16021790555091602001919060010190611b5a565b5b509050611bc09190611bf6565b5090565b611fb380611c3a83390190565b611bf391905b80821115611bef576000816000905550600101611bd7565b5090565b90565b611c3691905b80821115611c3257600081816101000a81549073ffffffffffffffffffffffffffffffffffffffff021916905550600101611bfc565b5090565b9056fe608060405234801561001057600080fd5b50600360678190555060006070819055506001607281905550436073819055506072544301607481905550611f698061004a6000396000f3fe608060405234801561001057600080fd5b50600436106101375760003560e01c8063958e9e87116100b8578063bd7d28cd1161007c578063bd7d28cd146105fa578063c329688514610659578063c4d66de8146106b1578063d47875d0146106f5578063e60673eb1461074d578063f2fde38b1461079257610137565b8063958e9e87146103d0578063a2d83b5e14610428578063a47bd4961461048e578063b8daa481146104de578063b9059c9e146105ae57610137565b80634d944b10116100ff5780634d944b10146102aa578063715018a6146102fd5780638da5cb5b146103075780638f32d59b1461035157806395804fe51461037357610137565b80630f9373ad1461013c5780631c4b774b1461015e5780632b40c186146101a05780633543ad58146101fe5780633fabc6b714610264575b600080fd5b6101446107d6565b604051808215151515815260200191505060405180910390f35b61018a6004803603602081101561017457600080fd5b81019080803590602001909291905050506109bb565b6040518082815260200191505060405180910390f35b6101e2600480360360208110156101b657600080fd5b81019080803573ffffffffffffffffffffffffffffffffffffffff1690602001909291905050506109d8565b604051808260ff1660ff16815260200191505060405180910390f35b61024a6004803603604081101561021457600080fd5b81019080803573ffffffffffffffffffffffffffffffffffffffff16906020019092919080359060200190929190505050610c27565b604051808215151515815260200191505060405180910390f35b6102906004803603602081101561027a57600080fd5b8101908080359060200190929190505050610f13565b604051808215151515815260200191505060405180910390f35b6102e3600480360360408110156102c057600080fd5b81019080803560ff16906020019092919080359060200190929190505050610f25565b604051808215151515815260200191505060405180910390f35b610305611026565b005b61030f611161565b604051808273ffffffffffffffffffffffffffffffffffffffff1673ffffffffffffffffffffffffffffffffffffffff16815260200191505060405180910390f35b61035961118b565b604051808215151515815260200191505060405180910390f35b6103b66004803603606081101561038957600080fd5b81019080803560ff16906020019092919080359060200190929190803590602001909291905050506111ea565b604051808215151515815260200191505060405180910390f35b610412600480360360208110156103e657600080fd5b81019080803573ffffffffffffffffffffffffffffffffffffffff169060200190929190505050611272565b6040518082815260200191505060405180910390f35b6104746004803603604081101561043e57600080fd5b81019080803573ffffffffffffffffffffffffffffffffffffffff1690602001909291908035906020019092919050505061131b565b604051808215151515815260200191505060405180910390f35b6104c4600480360360408110156104a457600080fd5b810190808035906020019092919080359060200190929190505050611760565b604051808215151515815260200191505060405180910390f35b610594600480360360208110156104f457600080fd5b810190808035906020019064010000000081111561051157600080fd5b82018360208201111561052357600080fd5b8035906020019184602083028401116401000000008311171561054557600080fd5b919080806020026020016040519081016040528093929190818152602001838360200280828437600081840152601f19601f820116905080830192505050505050509192919290505050611784565b604051808215151515815260200191505060405180910390f35b6105dd600480360360208110156105c457600080fd5b81019080803560ff1690602001909291905050506117a6565b604051808381526020018281526020019250505060405180910390f35b6106026117e6565b6040518080602001828103825283818151815260200191508051906020019060200280838360005b8381101561064557808201518184015260208101905061062a565b505050509050019250505060405180910390f35b61069b6004803603602081101561066f57600080fd5b81019080803573ffffffffffffffffffffffffffffffffffffffff169060200190929190505050611864565b6040518082815260200191505060405180910390f35b6106f3600480360360208110156106c757600080fd5b81019080803573ffffffffffffffffffffffffffffffffffffffff169060200190929190505050611933565b005b6107376004803603602081101561070b57600080fd5b81019080803573ffffffffffffffffffffffffffffffffffffffff169060200190929190505050611af1565b6040518082815260200191505060405180910390f35b61077c6004803603602081101561076357600080fd5b81019080803560ff169060200190929190505050611bd3565b6040518082815260200191505060405180910390f35b6107d4600480360360208110156107a857600080fd5b81019080803573ffffffffffffffffffffffffffffffffffffffff169060200190929190505050611bf6565b005b60006107e061118b565b610852576040517f08c379a00000000000000000000000000000000000000000000000000000000081526004018080602001828103825260208152602001807f4f776e61626c653a2063616c6c6572206973206e6f7420746865206f776e657281525060200191505060405180910390fd5b600060735414156108cb576040517f08c379a00000000000000000000000000000000000000000000000000000000081526004018080602001828103825260128152602001807f706572696f64206e6f742073746172746564000000000000000000000000000081525060200191505060405180910390fd5b607454431015610943576040517f08c379a00000000000000000000000000000000000000000000000000000000081526004018080602001828103825260108152602001807f706572696f64206e6f7420656e6465640000000000000000000000000000000081525060200191505060405180910390fd5b4360738190555060725443016074819055506070600081548092919060010191905055507f338893ceae5e34b22e74f366f643a4f9347093a9bfc28b8bdf049d5a8b2f04a260705460735460745460405180848152602001838152602001828152602001935050505060405180910390a16001905090565b6000606c6000838152602001908152602001600020549050919050565b6000607160008373ffffffffffffffffffffffffffffffffffffffff1673ffffffffffffffffffffffffffffffffffffffff16815260200190815260200160002060009054906101000a900460ff1615610c1d576000606e6000607054815260200190815260200160002060008473ffffffffffffffffffffffffffffffffffffffff1673ffffffffffffffffffffffffffffffffffffffff16815260200190815260200160002060009054906101000a900460ff1660ff161415610bb6576000600190505b6068805490508160ff16108015610ab957506070548160ff16105b15610bac578060ff16606e60008360ff1660705403815260200190815260200160002060008573ffffffffffffffffffffffffffffffffffffffff1673ffffffffffffffffffffffffffffffffffffffff16815260200190815260200160002060009054906101000a900460ff1660ff161115610b9f5780606e60008360ff1660705403815260200190815260200160002060008573ffffffffffffffffffffffffffffffffffffffff1673ffffffffffffffffffffffffffffffffffffffff16815260200190815260200160002060009054906101000a900460ff1603915050610c22565b8080600101915050610a9e565b5060019050610c22565b606e6000607054815260200190815260200160002060008373ffffffffffffffffffffffffffffffffffffffff1673ffffffffffffffffffffffffffffffffffffffff16815260200190815260200160002060009054906101000a900460ff169050610c22565b600090505b919050565b6000606754600a0a606b60006068600081548110610c4157fe5b90600052602060002090602091828204019190069054906101000a900460ff1660ff1660ff1681526020019081526020016000205481610c7d57fe5b0460665402821015610cf7576040517f08c379a00000000000000000000000000000000000000000000000000000000081526004018080602001828103825260158152602001807f746f6f206c6974746c6520636f6c6c61746572616c000000000000000000000081525060200191505060405180910390fd5b6001607160008573ffffffffffffffffffffffffffffffffffffffff1673ffffffffffffffffffffffffffffffffffffffff16815260200190815260200160002060006101000a81548160ff0219169083151502179055506068600081548110610d5d57fe5b90600052602060002090602091828204019190069054906101000a900460ff16606e6000607054815260200190815260200160002060008573ffffffffffffffffffffffffffffffffffffffff1673ffffffffffffffffffffffffffffffffffffffff16815260200190815260200160002060006101000a81548160ff021916908360ff16021790555081606d60008573ffffffffffffffffffffffffffffffffffffffff1673ffffffffffffffffffffffffffffffffffffffff16815260200190815260200160002081905550606c600080815260200190815260200160002054606f6000607054815260200190815260200160002060008573ffffffffffffffffffffffffffffffffffffffff1673ffffffffffffffffffffffffffffffffffffffff168152602001908152602001600020600082825401925050819055507ff98cab6bc44b636119c787ce88f3eb838e1e33fb8d39a6184a9a1caaa6c476f28383604051808373ffffffffffffffffffffffffffffffffffffffff1673ffffffffffffffffffffffffffffffffffffffff1681526020018281526020019250505060405180910390a16001905092915050565b60008160668190555060019050919050565b6000606754600a0a821015610f85576040517f08c379a0000000000000000000000000000000000000000000000000000000008152600401808060200182810382526028815260200180611f0d6028913960400191505060405180910390fd5b60008360ff1611610ffe576040517f08c379a00000000000000000000000000000000000000000000000000000000081526004018080602001828103825260138152602001807f6c6179657220302069732072657365727665640000000000000000000000000081525060200191505060405180910390fd5b81606b60008560ff1660ff168152602001908152602001600020819055506001905092915050565b61102e61118b565b6110a0576040517f08c379a00000000000000000000000000000000000000000000000000000000081526004018080602001828103825260208152602001807f4f776e61626c653a2063616c6c6572206973206e6f7420746865206f776e657281525060200191505060405180910390fd5b600073ffffffffffffffffffffffffffffffffffffffff16603360009054906101000a900473ffffffffffffffffffffffffffffffffffffffff1673ffffffffffffffffffffffffffffffffffffffff167f8be0079c531659141344cd1fd0a4f28419497f9722a3daafe3b4186f6b6457e060405160405180910390a36000603360006101000a81548173ffffffffffffffffffffffffffffffffffffffff021916908373ffffffffffffffffffffffffffffffffffffffff160217905550565b6000603360009054906101000a900473ffffffffffffffffffffffffffffffffffffffff16905090565b6000603360009054906101000a900473ffffffffffffffffffffffffffffffffffffffff1673ffffffffffffffffffffffffffffffffffffffff166111ce611c7c565b73ffffffffffffffffffffffffffffffffffffffff1614905090565b600082606960008660ff1660ff1681526020019081526020016000208190555081606a60008660ff1660ff168152602001908152602001600020819055507fb5d498578bc2899ab9512ab14ed648a427cd40fe44b08d851d35b7dc0645a8d18383604051808381526020018281526020019250505060405180910390a1600190509392505050565b60008061127e836109d8565b905060008160ff16116112f9576040517f08c379a000000000000000000000000000000000000000000000000000000000815260040180806020018281038252601b8152602001807f6167656e74206e6f742061737369676e656420746f206c61796572000000000081525060200191505060405180910390fd5b606b60008260ff1660ff16815260200190815260200160002054915050919050565b6000606c600083815260200190815260200160002054606f6000607054815260200190815260200160002060008573ffffffffffffffffffffffffffffffffffffffff1673ffffffffffffffffffffffffffffffffffffffff16815260200190815260200160002060008282540192505081905550600061139b846109d8565b905060008160ff1611611416576040517f08c379a000000000000000000000000000000000000000000000000000000000815260040180806020018281038252601b8152602001807f6167656e74206e6f742061737369676e656420746f206c61796572000000000081525060200191505060405180910390fd5b606a60008260ff1660ff16815260200190815260200160002054606f6000607054815260200190815260200160002060008673ffffffffffffffffffffffffffffffffffffffff1673ffffffffffffffffffffffffffffffffffffffff168152602001908152602001600020541015801561149957506068805490508160ff1614155b156115145760018101606e6000600160705401815260200190815260200160002060008673ffffffffffffffffffffffffffffffffffffffff1673ffffffffffffffffffffffffffffffffffffffff16815260200190815260200160002060006101000a81548160ff021916908360ff16021790555061167d565b606960008260ff1660ff16815260200190815260200160002054606f6000607054815260200190815260200160002060008673ffffffffffffffffffffffffffffffffffffffff1673ffffffffffffffffffffffffffffffffffffffff1681526020019081526020016000205411158015611592575060018160ff16115b1561160d5760018103606e6000600160705401815260200190815260200160002060008673ffffffffffffffffffffffffffffffffffffffff1673ffffffffffffffffffffffffffffffffffffffff16815260200190815260200160002060006101000a81548160ff021916908360ff16021790555061167c565b80606e6000600160705401815260200190815260200160002060008673ffffffffffffffffffffffffffffffffffffffff1673ffffffffffffffffffffffffffffffffffffffff16815260200190815260200160002060006101000a81548160ff021916908360ff1602179055505b5b7f5429acfa1bb2f4dabe79b6340b7d91d801c2d985aabad7148c2476bbd9421cf884606c600086815260200190815260200160002054606f6000607054815260200190815260200160002060008873ffffffffffffffffffffffffffffffffffffffff1673ffffffffffffffffffffffffffffffffffffffff16815260200190815260200160002054604051808473ffffffffffffffffffffffffffffffffffffffff1673ffffffffffffffffffffffffffffffffffffffff168152602001838152602001828152602001935050505060405180910390a1600191505092915050565b600081606c6000858152602001908152602001600020819055506001905092915050565b6000816068908051906020019061179c929190611de1565b5060019050919050565b600080606960008460ff1660ff16815260200190815260200160002054606a60008560ff1660ff1681526020019081526020016000205491509150915091565b6060606880548060200260200160405190810160405280929190818152602001828054801561185a57602002820191906000526020600020906000905b82829054906101000a900460ff1660ff16815260200190600101906020826000010492830192600103820291508084116118235790505b5050505050905090565b600080611870836109d8565b905060008160ff16116118eb576040517f08c379a000000000000000000000000000000000000000000000000000000000815260040180806020018281038252601b8152602001807f6167656e74206e6f742061737369676e656420746f206c61796572000000000081525060200191505060405180910390fd5b606d60008473ffffffffffffffffffffffffffffffffffffffff1673ffffffffffffffffffffffffffffffffffffffff16815260200190815260200160002054915050919050565b600060019054906101000a900460ff16806119525750611951611c84565b5b8061196957506000809054906101000a900460ff16155b6119be576040517f08c379a000000000000000000000000000000000000000000000000000000000815260040180806020018281038252602e815260200180611edf602e913960400191505060405180910390fd5b60008060019054906101000a900460ff161590508015611a0e576001600060016101000a81548160ff02191690831515021790555060016000806101000a81548160ff0219169083151502179055505b81603360006101000a81548173ffffffffffffffffffffffffffffffffffffffff021916908373ffffffffffffffffffffffffffffffffffffffff160217905550603360009054906101000a900473ffffffffffffffffffffffffffffffffffffffff1673ffffffffffffffffffffffffffffffffffffffff16600073ffffffffffffffffffffffffffffffffffffffff167f8be0079c531659141344cd1fd0a4f28419497f9722a3daafe3b4186f6b6457e060405160405180910390a38015611aed5760008060016101000a81548160ff0219169083151502179055505b5050565b600080611afd836109d8565b905060008160ff1611611b78576040517f08c379a000000000000000000000000000000000000000000000000000000000815260040180806020018281038252601b8152602001807f6167656e74206e6f742061737369676e656420746f206c61796572000000000081525060200191505060405180910390fd5b606f6000607054815260200190815260200160002060008473ffffffffffffffffffffffffffffffffffffffff1673ffffffffffffffffffffffffffffffffffffffff16815260200190815260200160002054915050919050565b6000606b60008360ff1660ff168152602001908152602001600020549050919050565b611bfe61118b565b611c70576040517f08c379a00000000000000000000000000000000000000000000000000000000081526004018080602001828103825260208152602001807f4f776e61626c653a2063616c6c6572206973206e6f7420746865206f776e657281525060200191505060405180910390fd5b611c7981611c9b565b50565b600033905090565b6000803090506000813b9050600081149250505090565b600073ffffffffffffffffffffffffffffffffffffffff168173ffffffffffffffffffffffffffffffffffffffff161415611d21576040517f08c379a0000000000000000000000000000000000000000000000000000000008152600401808060200182810382526026815260200180611eb96026913960400191505060405180910390fd5b8073ffffffffffffffffffffffffffffffffffffffff16603360009054906101000a900473ffffffffffffffffffffffffffffffffffffffff1673ffffffffffffffffffffffffffffffffffffffff167f8be0079c531659141344cd1fd0a4f28419497f9722a3daafe3b4186f6b6457e060405160405180910390a380603360006101000a81548173ffffffffffffffffffffffffffffffffffffffff021916908373ffffffffffffffffffffffffffffffffffffffff16021790555050565b82805482825590600052602060002090601f01602090048101928215611e775791602002820160005b83821115611e4857835183826101000a81548160ff021916908360ff1602179055509260200192600101602081600001049283019260010302611e0a565b8015611e755782816101000a81549060ff0219169055600101602081600001049283019260010302611e48565b505b509050611e849190611e88565b5090565b611eb591905b80821115611eb157600081816101000a81549060ff021916905550600101611e8e565b5090565b9056fe4f776e61626c653a206e6577206f776e657220697320746865207a65726f2061646472657373436f6e747261637420696e7374616e63652068617320616c7265616479206265656e20696e697469616c697a6564666163746f72206e6565647320746f2062652061626f7665206f7220657175616c20746f20312e30a265627a7a72315820109cf5c92cb155b6bec85cb94312263b54f24f622a708e955e43c157719e00c064736f6c634300050c00326c656e67746873206f66206c61796572735b5d2c206c617965724c6f776572426f756e64735b5d20616e64206c617965725570706572426f756e64735b5d20617265206e6f7420657175616c636f6e7472616374206e6f7420696e7465677261746564207769746820747275737479746865206c656e67746873206f6620616374696f6e735b5d20616e6420616374696f6e526577617264735b5d20617265206e6f7420657175616c746865206c656e67746873206f66206c61796572735b5d20616e64206c61796572466163746f72735b5d20617265206e6f7420657175616c70726f746f636f6c206e6f7420696e746567726174656420776974682074727573747941464b444e413a53444b4e53443a4b4e4144563a4b4e53443a4b4e3a4b4353414e53433a4b5341434e534144433a4b4e7e7e7e7e7e7e7e7e7e7e7e7e7e7e7e7e7e7e7e7e7e7e7e7ea265627a7a7231582033d63a6dc130b77d4d83776e18ffbebeda5b61c51045d373fc0777b6dc60d54264736f6c634300050c0032",
  "source": "pragma solidity ^0.5.0;\n\nimport \"@openzeppelin/contracts-ethereum-package/contracts/ownership/Ownable.sol\";\nimport \"@nomiclabs/buidler/console.sol\";\n\nimport \"./LTCR.sol\";\n\ncontract trusty {\n    string[] _protocols;\n\n    // each protocols has a corresponding LTCR instance\n    mapping (string => LTCR) _protocolToLTCR;\n    mapping (string => address[]) _protocolToContracts;\n\n    // because contract addresses are unique, we can map them to their action codes directly\n    mapping (address => uint256) _contractToAction;\n\n    function addProtocol(\n        string memory protocol,\n        address[] memory contracts,\n        uint8[] memory layers,\n        uint256[] memory layerFactors,\n        uint256[] memory layerLowerBounds,\n        uint256[] memory layerUpperBounds,\n        uint256 minCollateral,\n        uint256[] memory actions,\n        uint256[] memory actionRewards\n    ) public returns (bool) { //should be onlyOwner in the future\n        console.log(\"AFKDNA:SDKNSD:KNADV:KNSD:KN:KCSANSC:KSACNSADC:KN~~~~~~~~~~~~~~~~~~~~~~~~\");\n\n        require(!protocolAlreadyAdded(protocol), \"protocol already added\");\n\n        _protocols.push(protocol);\n        _protocolToContracts[protocol] = contracts;\n        for(uint8 i = 0; i < contracts.length; i++) {\n            _contractToAction[contracts[i]] = actions[i];\n        }\n        LTCR ltcr = new LTCR();\n        _protocolToLTCR[protocol] = ltcr;\n        ltcr.setLayers(layers);\n        ltcr.setCollateral(minCollateral);\n\n        setFactors(layers, layerFactors, ltcr);\n        setRewards(actions, actionRewards, ltcr);\n        setBounds(layers, layerLowerBounds, layerUpperBounds, ltcr);\n        return true;\n    }\n\n    function protocolAlreadyAdded(string memory protocol) private returns(bool) {\n        for (uint8 i = 0; i < _protocols.length; i++) {\n            if(identicalStrings(_protocols[i], protocol)) {\n                return true;\n            }\n        }\n        return false;\n    }\n\n    function identicalStrings(string memory a, string memory b) private returns(bool) {\n        return keccak256(bytes(a)) == keccak256(bytes(b));\n    }\n\n    function setFactors(uint8[] memory layers, uint256[] memory layerFactors, LTCR ltcr) private returns(bool) {\n        require(layers.length == layerFactors.length, \"the lengths of layers[] and layerFactors[] are not equal\");\n        for (uint8 i = 0; i < layers.length; i++) {\n            ltcr.setFactor(layers[i], layerFactors[i]);\n        }\n        return true;\n    }\n\n    function setRewards(uint256[] memory actions, uint256[] memory actionRewards, LTCR ltcr) private returns(bool) {\n        require(actions.length == actionRewards.length, \"the lengths of actions[] and actionRewards[] are not equal\");\n        for (uint8 i = 0; i < actions.length; i++) {\n            ltcr.setReward(actions[i], actionRewards[i]);\n        }\n        return true;\n    }\n\n    function setBounds(\n        uint8[] memory layers,\n        uint256[] memory layerLowerBounds,\n        uint256[] memory layerUpperBounds,\n        LTCR ltcr\n    ) private returns(bool) {\n        require(\n            layers.length == layerLowerBounds.length && layers.length == layerUpperBounds.length,\n            \"lengths of layers[], layerLowerBounds[] and layerUpperBounds[] are not equal\"\n        );\n        for (uint8 i = 0; i < layers.length; i++) {\n            ltcr.setBounds(layers[i], layerLowerBounds[i], layerUpperBounds[i]);\n        }\n        return true;\n    }\n\n    function setContracts(string memory protocol, address[] memory contracts) public returns(bool) { //should be onlyOwner in the future\n        console.log(\"console log working 2\");\n        require(protocolAlreadyAdded(protocol), \"protocol not integrated with trusty\");\n        _protocolToContracts[protocol] = contracts;\n        return true;\n    }\n\n    function proxy(address implementation, bytes memory params) public {\n        address agent = msg.sender;\n        string memory protocol = getTrustyIntegration(implementation);\n        console.log(\"console log working 1 \");\n        require(!identicalStrings(protocol, \"\"), \"contract not integrated with trusty\");\n\n        LTCR ltcr = _protocolToLTCR[protocol];\n        uint256 collateral = 130;\n        addAgentToLTCR(agent, collateral, ltcr);\n\n        uint256 action = _contractToAction[implementation];\n\n\n        uint len = params.length;\n        uint256 returnedVal;\n        // uint256 succeeded;\n        assembly {\n            let result := delegatecall(gas(), implementation, add(params, 32), len, 0, 0)\n            returndatacopy(0, 0, returndatasize())\n            returnedVal := mload(0)\n            // switch result\n            // delegatecall returns 0 on error.\n            // case 0 {\n            //     succeeded := 0\n            // }\n            // default {\n            //     succeeded := 1\n            // }\n        }\n\n        ltcr.update(agent, action);\n        // no need to check `result`, since a a failed trasnaction will revert state and the following code won't be reached\n    }\n\n    function getTrustyIntegration(address implementation) private returns(string memory) {\n        for (uint8 i = 0; i < _protocols.length; i++) {\n            address[] memory contracts = _protocolToContracts[_protocols[i]];\n            for (uint8 j = 0; j < contracts.length; j++) {\n                if (contracts[j] == implementation) {\n                    return _protocols[i];\n                }\n            }\n        }\n        return \"\";\n    }\n\n    function addAgentToLTCR(address agent, uint256 collateral, LTCR ltcr) private {\n        if(ltcr.getAssignment(agent) == 0) {\n            ltcr.registerAgent(agent, collateral);\n        }\n\n    }\n\n    function() external payable {\n        console.log(\"reached the fallback\");\n    }\n\n}",
  "sourcePath": "/Users/dani/dani/Pro/facultate/Master/Term_3_Dissertation/protocol-integrations/contracts/trusty.sol",
  "compiler": {
    "name": "solc",
    "version": "0.5.12+commit.7709ece9.Emscripten.clang"
  },
  "schemaVersion": "3.0.19",
  "updatedAt": "2020-04-30T13:16:39.171Z",
  "networkType": "ethereum",
  "devdoc": {
    "methods": {}
  },
  "userdoc": {
    "methods": {}
  }
}